{
  "_format": "hh-sol-artifact-1",
  "contractName": "ComputerMarketplace",
  "sourceName": "contracts/computerMarketplace.sol",
  "abi": [
    {
      "anonymous": false,
      "inputs": [
        {
          "indexed": true,
          "internalType": "address",
          "name": "owner",
          "type": "address"
        },
        {
          "indexed": false,
          "internalType": "string",
          "name": "computer_title",
          "type": "string"
        },
        {
          "indexed": false,
          "internalType": "string",
          "name": "image_url",
          "type": "string"
        },
        {
          "indexed": false,
          "internalType": "string",
          "name": "computer_specs",
          "type": "string"
        },
        {
          "indexed": false,
          "internalType": "string",
          "name": "store_location",
          "type": "string"
        },
        {
          "indexed": false,
          "internalType": "uint256",
          "name": "price",
          "type": "uint256"
        }
      ],
      "name": "ProductCreated",
      "type": "event"
    },
    {
      "anonymous": false,
      "inputs": [
        {
          "indexed": true,
          "internalType": "address",
          "name": "owner",
          "type": "address"
        },
        {
          "indexed": false,
          "internalType": "string",
          "name": "computer_title",
          "type": "string"
        },
        {
          "indexed": false,
          "internalType": "string",
          "name": "image_url",
          "type": "string"
        }
      ],
      "name": "ProductDeleted",
      "type": "event"
    },
    {
      "anonymous": false,
      "inputs": [
        {
          "indexed": true,
          "internalType": "address",
          "name": "owner",
          "type": "address"
        },
        {
          "indexed": false,
          "internalType": "string",
          "name": "computer_title",
          "type": "string"
        },
        {
          "indexed": false,
          "internalType": "string",
          "name": "image_url",
          "type": "string"
        }
      ],
      "name": "ProductSold",
      "type": "event"
    },
    {
      "inputs": [
        {
          "internalType": "uint256",
          "name": "_index",
          "type": "uint256"
        }
      ],
      "name": "buyProduct",
      "outputs": [],
      "stateMutability": "payable",
      "type": "function"
    },
    {
      "inputs": [
        {
          "internalType": "uint256",
          "name": "_index",
          "type": "uint256"
        }
      ],
      "name": "deleteProduct",
      "outputs": [],
      "stateMutability": "nonpayable",
      "type": "function"
    },
    {
      "inputs": [
        {
          "internalType": "address",
          "name": "_user",
          "type": "address"
        }
      ],
      "name": "getProductsByUser",
      "outputs": [
        {
          "components": [
            {
              "internalType": "address payable",
              "name": "owner",
              "type": "address"
            },
            {
              "internalType": "string",
              "name": "computer_title",
              "type": "string"
            },
            {
              "internalType": "string",
              "name": "image_url",
              "type": "string"
            },
            {
              "internalType": "string",
              "name": "computer_specs",
              "type": "string"
            },
            {
              "internalType": "string",
              "name": "store_location",
              "type": "string"
            },
            {
              "internalType": "uint256",
              "name": "price",
              "type": "uint256"
            },
            {
              "internalType": "uint256",
              "name": "sold",
              "type": "uint256"
            }
          ],
          "internalType": "struct ComputerMarketplace.Product[]",
          "name": "",
          "type": "tuple[]"
        }
      ],
      "stateMutability": "view",
      "type": "function"
    },
    {
      "inputs": [],
      "name": "getProductsLength",
      "outputs": [
        {
          "internalType": "uint256",
          "name": "",
          "type": "uint256"
        }
      ],
      "stateMutability": "view",
      "type": "function"
    },
    {
      "inputs": [
        {
          "internalType": "uint256",
          "name": "_index",
          "type": "uint256"
        }
      ],
      "name": "readProduct",
      "outputs": [
        {
          "internalType": "address payable",
          "name": "",
          "type": "address"
        },
        {
          "internalType": "string",
          "name": "",
          "type": "string"
        },
        {
          "internalType": "string",
          "name": "",
          "type": "string"
        },
        {
          "internalType": "string",
          "name": "",
          "type": "string"
        },
        {
          "internalType": "string",
          "name": "",
          "type": "string"
        },
        {
          "internalType": "uint256",
          "name": "",
          "type": "uint256"
        },
        {
          "internalType": "uint256",
          "name": "",
          "type": "uint256"
        }
      ],
      "stateMutability": "view",
      "type": "function"
    },
    {
      "inputs": [
        {
          "internalType": "uint256",
          "name": "_maxProductsPerUser",
          "type": "uint256"
        }
      ],
      "name": "setMaxProductsPerUser",
      "outputs": [],
      "stateMutability": "nonpayable",
      "type": "function"
    },
    {
      "inputs": [
        {
          "internalType": "string",
          "name": "_computer_title",
          "type": "string"
        },
        {
          "internalType": "string",
          "name": "_image_url",
          "type": "string"
        },
        {
          "internalType": "string",
          "name": "_computer_specs",
          "type": "string"
        },
        {
          "internalType": "string",
          "name": "_store_location",
          "type": "string"
        },
        {
          "internalType": "uint256",
          "name": "_price",
          "type": "uint256"
        }
      ],
      "name": "writeProduct",
      "outputs": [],
      "stateMutability": "nonpayable",
      "type": "function"
    }
  ],
  "bytecode": "0x60806040526000805573f194afdf50b03e69bd7d057c1aa9e10c9954e4c9600160006101000a81548173ffffffffffffffffffffffffffffffffffffffff021916908373ffffffffffffffffffffffffffffffffffffffff16021790555033600260006101000a81548173ffffffffffffffffffffffffffffffffffffffff021916908373ffffffffffffffffffffffffffffffffffffffff1602179055506000600260146101000a81548160ff021916908315150217905550600a6005553480156100ca57600080fd5b506129b0806100da6000396000f3fe6080604052600436106100705760003560e01c80638da8f27b1161004e5780638da8f27b146100f9578063a8701b0b14610122578063ed90c7b71461014b578063fffa7e2e1461017457610070565b80631155dfe51461007557806359a0c314146100a05780638642269e146100dd575b600080fd5b34801561008157600080fd5b5061008a6101b7565b60405161009791906115e4565b60405180910390f35b3480156100ac57600080fd5b506100c760048036038101906100c29190611671565b6101c0565b6040516100d491906118d1565b60405180910390f35b6100f760048036038101906100f2919061191f565b610647565b005b34801561010557600080fd5b50610120600480360381019061011b9190611a81565b610a73565b005b34801561012e57600080fd5b506101496004803603810190610144919061191f565b610e3d565b005b34801561015757600080fd5b50610172600480360381019061016d919061191f565b610ee4565b005b34801561018057600080fd5b5061019b6004803603810190610196919061191f565b61120a565b6040516101ae9796959493929190611bc5565b60405180910390f35b60008054905090565b60606000805b60005481101561025b578373ffffffffffffffffffffffffffffffffffffffff166003600083815260200190815260200160002060000160009054906101000a900473ffffffffffffffffffffffffffffffffffffffff1673ffffffffffffffffffffffffffffffffffffffff160361024857818061024490611c7f565b9250505b808061025390611c7f565b9150506101c6565b5060008167ffffffffffffffff81111561027857610277611956565b5b6040519080825280602002602001820160405280156102b157816020015b61029e61151b565b8152602001906001900390816102965790505b5090506000805b60005481101561063b578573ffffffffffffffffffffffffffffffffffffffff166003600083815260200190815260200160002060000160009054906101000a900473ffffffffffffffffffffffffffffffffffffffff1673ffffffffffffffffffffffffffffffffffffffff160361062857600360008281526020019081526020016000206040518060e00160405290816000820160009054906101000a900473ffffffffffffffffffffffffffffffffffffffff1673ffffffffffffffffffffffffffffffffffffffff1673ffffffffffffffffffffffffffffffffffffffff1681526020016001820180546103af90611cf6565b80601f01602080910402602001604051908101604052809291908181526020018280546103db90611cf6565b80156104285780601f106103fd57610100808354040283529160200191610428565b820191906000526020600020905b81548152906001019060200180831161040b57829003601f168201915b5050505050815260200160028201805461044190611cf6565b80601f016020809104026020016040519081016040528092919081815260200182805461046d90611cf6565b80156104ba5780601f1061048f576101008083540402835291602001916104ba565b820191906000526020600020905b81548152906001019060200180831161049d57829003601f168201915b505050505081526020016003820180546104d390611cf6565b80601f01602080910402602001604051908101604052809291908181526020018280546104ff90611cf6565b801561054c5780601f106105215761010080835404028352916020019161054c565b820191906000526020600020905b81548152906001019060200180831161052f57829003601f168201915b5050505050815260200160048201805461056590611cf6565b80601f016020809104026020016040519081016040528092919081815260200182805461059190611cf6565b80156105de5780601f106105b3576101008083540402835291602001916105de565b820191906000526020600020905b8154815290600101906020018083116105c157829003601f168201915b505050505081526020016005820154815260200160068201548152505083838151811061060e5761060d611d27565b5b6020026020010181905250818061062490611c7f565b9250505b808061063390611c7f565b9150506102b8565b50819350505050919050565b600260149054906101000a900460ff1615610697576040517f08c379a000000000000000000000000000000000000000000000000000000000815260040161068e90611da2565b60405180910390fd5b6001600260146101000a81548160ff021916908315150217905550600360008281526020019081526020016000206005015434146106d457600080fd5b6000600160009054906101000a900473ffffffffffffffffffffffffffffffffffffffff1673ffffffffffffffffffffffffffffffffffffffff1663dd62ed3e33306040518363ffffffff1660e01b8152600401610733929190611dd1565b602060405180830381865afa158015610750573d6000803e3d6000fd5b505050506040513d601f19601f820116820180604052508101906107749190611e0f565b905060036000838152602001908152602001600020600501548110156107cf576040517f08c379a00000000000000000000000000000000000000000000000000000000081526004016107c690611e88565b60405180910390fd5b600160009054906101000a900473ffffffffffffffffffffffffffffffffffffffff1673ffffffffffffffffffffffffffffffffffffffff166323b872dd336003600086815260200190815260200160002060000160009054906101000a900473ffffffffffffffffffffffffffffffffffffffff1660036000878152602001908152602001600020600501546040518463ffffffff1660e01b815260040161087a93929190611f07565b6020604051808303816000875af1158015610899573d6000803e3d6000fd5b505050506040513d601f19601f820116820180604052508101906108bd9190611f76565b6108fc576040517f08c379a00000000000000000000000000000000000000000000000000000000081526004016108f390611fef565b60405180910390fd5b6003600083815260200190815260200160002060000160009054906101000a900473ffffffffffffffffffffffffffffffffffffffff1673ffffffffffffffffffffffffffffffffffffffff166108fc349081150290604051600060405180830381858888f19350505050158015610978573d6000803e3d6000fd5b506003600083815260200190815260200160002060060160008154809291906109a090611c7f565b91905055506003600083815260200190815260200160002060000160009054906101000a900473ffffffffffffffffffffffffffffffffffffffff1673ffffffffffffffffffffffffffffffffffffffff167e3de23fc118e96af7e3a4fc5d45e1d744f8841d9b4492b68e1c4f96ae2e31006003600085815260200190815260200160002060010160036000868152602001908152602001600020600201604051610a4c9291906120a8565b60405180910390a2506000600260146101000a81548160ff02191690831515021790555050565b6000855111610ab7576040517f08c379a0000000000000000000000000000000000000000000000000000000008152600401610aae9061212b565b60405180910390fd5b6000845111610afb576040517f08c379a0000000000000000000000000000000000000000000000000000000008152600401610af290612197565b60405180910390fd5b6000835111610b3f576040517f08c379a0000000000000000000000000000000000000000000000000000000008152600401610b3690612203565b60405180910390fd5b6000825111610b83576040517f08c379a0000000000000000000000000000000000000000000000000000000008152600401610b7a9061226f565b60405180910390fd5b600081118015610b9c575068056bc75e2d631000008111155b610bdb576040517f08c379a0000000000000000000000000000000000000000000000000000000008152600401610bd2906122db565b60405180910390fd5b600554600460003373ffffffffffffffffffffffffffffffffffffffff1673ffffffffffffffffffffffffffffffffffffffff1681526020019081526020016000205410610c5e576040517f08c379a0000000000000000000000000000000000000000000000000000000008152600401610c559061236d565b60405180910390fd5b60006040518060e001604052803373ffffffffffffffffffffffffffffffffffffffff16815260200187815260200186815260200185815260200184815260200183815260200182815250600360008054815260200190815260200160002060008201518160000160006101000a81548173ffffffffffffffffffffffffffffffffffffffff021916908373ffffffffffffffffffffffffffffffffffffffff1602179055506020820151816001019081610d19919061251a565b506040820151816002019081610d2f919061251a565b506060820151816003019081610d45919061251a565b506080820151816004019081610d5b919061251a565b5060a0820151816005015560c08201518160060155905050600080815480929190610d8590611c7f565b9190505550600460003373ffffffffffffffffffffffffffffffffffffffff1673ffffffffffffffffffffffffffffffffffffffff1681526020019081526020016000206000815480929190610dda90611c7f565b91905055503373ffffffffffffffffffffffffffffffffffffffff167fa31d1ff55d59cd293ba471cd37da9b4d9ccb98f2d1b5d4c35614b2af8c1ac4358787878787604051610e2d9594939291906125ec565b60405180910390a2505050505050565b600260009054906101000a900473ffffffffffffffffffffffffffffffffffffffff1673ffffffffffffffffffffffffffffffffffffffff163373ffffffffffffffffffffffffffffffffffffffff1614610e9757600080fd5b60008111610eda576040517f08c379a0000000000000000000000000000000000000000000000000000000008152600401610ed1906126cd565b60405180910390fd5b8060058190555050565b6000548110610f28576040517f08c379a0000000000000000000000000000000000000000000000000000000008152600401610f1f90612739565b60405180910390fd5b3373ffffffffffffffffffffffffffffffffffffffff166003600083815260200190815260200160002060000160009054906101000a900473ffffffffffffffffffffffffffffffffffffffff1673ffffffffffffffffffffffffffffffffffffffff1614610fcc576040517f08c379a0000000000000000000000000000000000000000000000000000000008152600401610fc3906127cb565b60405180910390fd5b60008190505b6001600054610fe191906127eb565b8110156110ff5760036000600183610ff9919061281f565b8152602001908152602001600020600360008381526020019081526020016000206000820160009054906101000a900473ffffffffffffffffffffffffffffffffffffffff168160000160006101000a81548173ffffffffffffffffffffffffffffffffffffffff021916908373ffffffffffffffffffffffffffffffffffffffff160217905550600182018160010190816110959190612869565b50600282018160020190816110aa9190612869565b50600382018160030190816110bf9190612869565b50600482018160040190816110d49190612869565b50600582015481600501556006820154816006015590505080806110f790611c7f565b915050610fd2565b5060036000600160005461111391906127eb565b8152602001908152602001600020600080820160006101000a81549073ffffffffffffffffffffffffffffffffffffffff0219169055600182016000611159919061156e565b600282016000611169919061156e565b600382016000611179919061156e565b600482016000611189919061156e565b6005820160009055600682016000905550506000808154809291906111ad90612951565b9190505550600460003373ffffffffffffffffffffffffffffffffffffffff1673ffffffffffffffffffffffffffffffffffffffff168152602001908152602001600020600081548092919061120290612951565b919050555050565b60006060806060806000806003600089815260200190815260200160002060000160009054906101000a900473ffffffffffffffffffffffffffffffffffffffff16600360008a8152602001908152602001600020600101600360008b8152602001908152602001600020600201600360008c8152602001908152602001600020600301600360008d8152602001908152602001600020600401600360008e815260200190815260200160002060050154600360008f8152602001908152602001600020600601548580546112de90611cf6565b80601f016020809104026020016040519081016040528092919081815260200182805461130a90611cf6565b80156113575780601f1061132c57610100808354040283529160200191611357565b820191906000526020600020905b81548152906001019060200180831161133a57829003601f168201915b5050505050955084805461136a90611cf6565b80601f016020809104026020016040519081016040528092919081815260200182805461139690611cf6565b80156113e35780601f106113b8576101008083540402835291602001916113e3565b820191906000526020600020905b8154815290600101906020018083116113c657829003601f168201915b505050505094508380546113f690611cf6565b80601f016020809104026020016040519081016040528092919081815260200182805461142290611cf6565b801561146f5780601f106114445761010080835404028352916020019161146f565b820191906000526020600020905b81548152906001019060200180831161145257829003601f168201915b5050505050935082805461148290611cf6565b80601f01602080910402602001604051908101604052809291908181526020018280546114ae90611cf6565b80156114fb5780601f106114d0576101008083540402835291602001916114fb565b820191906000526020600020905b8154815290600101906020018083116114de57829003601f168201915b505050505092509650965096509650965096509650919395979092949650565b6040518060e00160405280600073ffffffffffffffffffffffffffffffffffffffff1681526020016060815260200160608152602001606081526020016060815260200160008152602001600081525090565b50805461157a90611cf6565b6000825580601f1061158c57506115ab565b601f0160209004906000526020600020908101906115aa91906115ae565b5b50565b5b808211156115c75760008160009055506001016115af565b5090565b6000819050919050565b6115de816115cb565b82525050565b60006020820190506115f960008301846115d5565b92915050565b6000604051905090565b600080fd5b600080fd5b600073ffffffffffffffffffffffffffffffffffffffff82169050919050565b600061163e82611613565b9050919050565b61164e81611633565b811461165957600080fd5b50565b60008135905061166b81611645565b92915050565b60006020828403121561168757611686611609565b5b60006116958482850161165c565b91505092915050565b600081519050919050565b600082825260208201905092915050565b6000819050602082019050919050565b60006116d582611613565b9050919050565b6116e5816116ca565b82525050565b600081519050919050565b600082825260208201905092915050565b60005b8381101561172557808201518184015260208101905061170a565b60008484015250505050565b6000601f19601f8301169050919050565b600061174d826116eb565b61175781856116f6565b9350611767818560208601611707565b61177081611731565b840191505092915050565b611784816115cb565b82525050565b600060e0830160008301516117a260008601826116dc565b50602083015184820360208601526117ba8282611742565b915050604083015184820360408601526117d48282611742565b915050606083015184820360608601526117ee8282611742565b915050608083015184820360808601526118088282611742565b91505060a083015161181d60a086018261177b565b5060c083015161183060c086018261177b565b508091505092915050565b6000611847838361178a565b905092915050565b6000602082019050919050565b60006118678261169e565b61187181856116a9565b935083602082028501611883856116ba565b8060005b858110156118bf57848403895281516118a0858261183b565b94506118ab8361184f565b925060208a01995050600181019050611887565b50829750879550505050505092915050565b600060208201905081810360008301526118eb818461185c565b905092915050565b6118fc816115cb565b811461190757600080fd5b50565b600081359050611919816118f3565b92915050565b60006020828403121561193557611934611609565b5b60006119438482850161190a565b91505092915050565b600080fd5b600080fd5b7f4e487b7100000000000000000000000000000000000000000000000000000000600052604160045260246000fd5b61198e82611731565b810181811067ffffffffffffffff821117156119ad576119ac611956565b5b80604052505050565b60006119c06115ff565b90506119cc8282611985565b919050565b600067ffffffffffffffff8211156119ec576119eb611956565b5b6119f582611731565b9050602081019050919050565b82818337600083830152505050565b6000611a24611a1f846119d1565b6119b6565b905082815260208101848484011115611a4057611a3f611951565b5b611a4b848285611a02565b509392505050565b600082601f830112611a6857611a6761194c565b5b8135611a78848260208601611a11565b91505092915050565b600080600080600060a08688031215611a9d57611a9c611609565b5b600086013567ffffffffffffffff811115611abb57611aba61160e565b5b611ac788828901611a53565b955050602086013567ffffffffffffffff811115611ae857611ae761160e565b5b611af488828901611a53565b945050604086013567ffffffffffffffff811115611b1557611b1461160e565b5b611b2188828901611a53565b935050606086013567ffffffffffffffff811115611b4257611b4161160e565b5b611b4e88828901611a53565b9250506080611b5f8882890161190a565b9150509295509295909350565b611b75816116ca565b82525050565b600082825260208201905092915050565b6000611b97826116eb565b611ba18185611b7b565b9350611bb1818560208601611707565b611bba81611731565b840191505092915050565b600060e082019050611bda600083018a611b6c565b8181036020830152611bec8189611b8c565b90508181036040830152611c008188611b8c565b90508181036060830152611c148187611b8c565b90508181036080830152611c288186611b8c565b9050611c3760a08301856115d5565b611c4460c08301846115d5565b98975050505050505050565b7f4e487b7100000000000000000000000000000000000000000000000000000000600052601160045260246000fd5b6000611c8a826115cb565b91507fffffffffffffffffffffffffffffffffffffffffffffffffffffffffffffffff8203611cbc57611cbb611c50565b5b600182019050919050565b7f4e487b7100000000000000000000000000000000000000000000000000000000600052602260045260246000fd5b60006002820490506001821680611d0e57607f821691505b602082108103611d2157611d20611cc7565b5b50919050565b7f4e487b7100000000000000000000000000000000000000000000000000000000600052603260045260246000fd5b7f5265656e7472616e742063616c6c2e0000000000000000000000000000000000600082015250565b6000611d8c600f83611b7b565b9150611d9782611d56565b602082019050919050565b60006020820190508181036000830152611dbb81611d7f565b9050919050565b611dcb81611633565b82525050565b6000604082019050611de66000830185611dc2565b611df36020830184611dc2565b9392505050565b600081519050611e09816118f3565b92915050565b600060208284031215611e2557611e24611609565b5b6000611e3384828501611dfa565b91505092915050565b7f43656c6f20746f6b656e20616c6c6f77616e6365206e6f7420656e6f75676800600082015250565b6000611e72601f83611b7b565b9150611e7d82611e3c565b602082019050919050565b60006020820190508181036000830152611ea181611e65565b9050919050565b6000819050919050565b6000611ecd611ec8611ec384611613565b611ea8565b611613565b9050919050565b6000611edf82611eb2565b9050919050565b6000611ef182611ed4565b9050919050565b611f0181611ee6565b82525050565b6000606082019050611f1c6000830186611dc2565b611f296020830185611ef8565b611f3660408301846115d5565b949350505050565b60008115159050919050565b611f5381611f3e565b8114611f5e57600080fd5b50565b600081519050611f7081611f4a565b92915050565b600060208284031215611f8c57611f8b611609565b5b6000611f9a84828501611f61565b91505092915050565b7f43656c6f20746f6b656e207472616e73666572206661696c6564000000000000600082015250565b6000611fd9601a83611b7b565b9150611fe482611fa3565b602082019050919050565b6000602082019050818103600083015261200881611fcc565b9050919050565b60008190508160005260206000209050919050565b6000815461203181611cf6565b61203b8186611b7b565b94506001821660008114612056576001811461206c5761209f565b60ff19831686528115156020028601935061209f565b6120758561200f565b60005b8381101561209757815481890152600182019150602081019050612078565b808801955050505b50505092915050565b600060408201905081810360008301526120c28185612024565b905081810360208301526120d68184612024565b90509392505050565b7f436f6d7075746572207469746c652063616e6e6f7420626520656d7074790000600082015250565b6000612115601e83611b7b565b9150612120826120df565b602082019050919050565b6000602082019050818103600083015261214481612108565b9050919050565b7f496d6167652055524c2063616e6e6f7420626520656d70747900000000000000600082015250565b6000612181601983611b7b565b915061218c8261214b565b602082019050919050565b600060208201905081810360008301526121b081612174565b9050919050565b7f436f6d70757465722073706563732063616e6e6f7420626520656d7074790000600082015250565b60006121ed601e83611b7b565b91506121f8826121b7565b602082019050919050565b6000602082019050818103600083015261221c816121e0565b9050919050565b7f53746f7265206c6f636174696f6e2063616e6e6f7420626520656d7074790000600082015250565b6000612259601e83611b7b565b915061226482612223565b602082019050919050565b600060208201905081810360008301526122888161224c565b9050919050565b7f496e76616c69642070726f647563742070726963650000000000000000000000600082015250565b60006122c5601583611b7b565b91506122d08261228f565b602082019050919050565b600060208201905081810360008301526122f4816122b8565b9050919050565b7f4d6178696d756d2070726f64756374732070657220757365722072656163686560008201527f6400000000000000000000000000000000000000000000000000000000000000602082015250565b6000612357602183611b7b565b9150612362826122fb565b604082019050919050565b600060208201905081810360008301526123868161234a565b9050919050565b60006020601f8301049050919050565b600082821b905092915050565b6000600883026123da7fffffffffffffffffffffffffffffffffffffffffffffffffffffffffffffffff8261239d565b6123e4868361239d565b95508019841693508086168417925050509392505050565b600061241761241261240d846115cb565b611ea8565b6115cb565b9050919050565b6000819050919050565b612431836123fc565b61244561243d8261241e565b8484546123aa565b825550505050565b600090565b61245a61244d565b612465818484612428565b505050565b5b818110156124895761247e600082612452565b60018101905061246b565b5050565b601f8211156124ce5761249f8161200f565b6124a88461238d565b810160208510156124b7578190505b6124cb6124c38561238d565b83018261246a565b50505b505050565b600082821c905092915050565b60006124f1600019846008026124d3565b1980831691505092915050565b600061250a83836124e0565b9150826002028217905092915050565b612523826116eb565b67ffffffffffffffff81111561253c5761253b611956565b5b6125468254611cf6565b61255182828561248d565b600060209050601f8311600181146125845760008415612572578287015190505b61257c85826124fe565b8655506125e4565b601f1984166125928661200f565b60005b828110156125ba57848901518255600182019150602085019450602081019050612595565b868310156125d757848901516125d3601f8916826124e0565b8355505b6001600288020188555050505b505050505050565b600060a08201905081810360008301526126068188611b8c565b9050818103602083015261261a8187611b8c565b9050818103604083015261262e8186611b8c565b905081810360608301526126428185611b8c565b905061265160808301846115d5565b9695505050505050565b7f4d6178696d756d2070726f6475637473207065722075736572206d757374206260008201527f652067726561746572207468616e203000000000000000000000000000000000602082015250565b60006126b7603083611b7b565b91506126c28261265b565b604082019050919050565b600060208201905081810360008301526126e6816126aa565b9050919050565b7f50726f6475637420696e646578206f7574206f662072616e6765000000000000600082015250565b6000612723601a83611b7b565b915061272e826126ed565b602082019050919050565b6000602082019050818103600083015261275281612716565b9050919050565b7f4f6e6c7920746865206f776e65722063616e2064656c6574652074686569722060008201527f70726f6475637473000000000000000000000000000000000000000000000000602082015250565b60006127b5602883611b7b565b91506127c082612759565b604082019050919050565b600060208201905081810360008301526127e4816127a8565b9050919050565b60006127f6826115cb565b9150612801836115cb565b925082820390508181111561281957612818611c50565b5b92915050565b600061282a826115cb565b9150612835836115cb565b925082820190508082111561284d5761284c611c50565b5b92915050565b60008154905061286281611cf6565b9050919050565b81810361287757505061294f565b61288082612853565b67ffffffffffffffff81111561289957612898611956565b5b6128a38254611cf6565b6128ae82828561248d565b6000601f8311600181146128dd57600084156128cb578287015490505b6128d585826124fe565b865550612948565b601f1984166128eb8761200f565b96506128f68661200f565b60005b8281101561291e578489015482556001820191506001850194506020810190506128f9565b8683101561293b5784890154612937601f8916826124e0565b8355505b6001600288020188555050505b5050505050505b565b600061295c826115cb565b91506000820361296f5761296e611c50565b5b60018203905091905056fea264697066735822122074a9925176fbe0553fcaa6744281ad8522b59a933defdf9bdf45953b696aa7e664736f6c63430008110033",
  "linkReferences": {},
  "deployedLinkReferences": {}
}