{
  "_format": "hh-sol-artifact-1",
  "contractName": "ComputerMarketplace",
  "sourceName": "contracts/computerMarketplace.sol",
  "abi": [
    {
      "anonymous": false,
      "inputs": [
        {
          "indexed": true,
          "internalType": "address",
          "name": "owner",
          "type": "address"
        },
        {
          "indexed": false,
          "internalType": "string",
          "name": "computer_title",
          "type": "string"
        },
        {
          "indexed": false,
          "internalType": "string",
          "name": "image_url",
          "type": "string"
        },
        {
          "indexed": false,
          "internalType": "string",
          "name": "computer_specs",
          "type": "string"
        },
        {
          "indexed": false,
          "internalType": "string",
          "name": "store_location",
          "type": "string"
        },
        {
          "indexed": false,
          "internalType": "uint256",
          "name": "price",
          "type": "uint256"
        }
      ],
      "name": "ProductCreated",
      "type": "event"
    },
    {
      "anonymous": false,
      "inputs": [
        {
          "indexed": true,
          "internalType": "address",
          "name": "owner",
          "type": "address"
        },
        {
          "indexed": false,
          "internalType": "string",
          "name": "computer_title",
          "type": "string"
        },
        {
          "indexed": false,
          "internalType": "string",
          "name": "image_url",
          "type": "string"
        }
      ],
      "name": "ProductDeleted",
      "type": "event"
    },
    {
      "inputs": [
        {
          "internalType": "uint256",
          "name": "_index",
          "type": "uint256"
        }
      ],
      "name": "buyProduct",
      "outputs": [],
      "stateMutability": "payable",
      "type": "function"
    },
    {
      "inputs": [
        {
          "internalType": "uint256",
          "name": "_index",
          "type": "uint256"
        }
      ],
      "name": "deleteProduct",
      "outputs": [],
      "stateMutability": "nonpayable",
      "type": "function"
    },
    {
      "inputs": [
        {
          "internalType": "address",
          "name": "_user",
          "type": "address"
        }
      ],
      "name": "getProductsByUser",
      "outputs": [
        {
          "components": [
            {
              "internalType": "address payable",
              "name": "owner",
              "type": "address"
            },
            {
              "internalType": "string",
              "name": "computer_title",
              "type": "string"
            },
            {
              "internalType": "string",
              "name": "image_url",
              "type": "string"
            },
            {
              "internalType": "string",
              "name": "computer_specs",
              "type": "string"
            },
            {
              "internalType": "string",
              "name": "store_location",
              "type": "string"
            },
            {
              "internalType": "uint256",
              "name": "price",
              "type": "uint256"
            },
            {
              "internalType": "uint256",
              "name": "sold",
              "type": "uint256"
            }
          ],
          "internalType": "struct ComputerMarketplace.Product[]",
          "name": "",
          "type": "tuple[]"
        }
      ],
      "stateMutability": "view",
      "type": "function"
    },
    {
      "inputs": [],
      "name": "getProductsLength",
      "outputs": [
        {
          "internalType": "uint256",
          "name": "",
          "type": "uint256"
        }
      ],
      "stateMutability": "view",
      "type": "function"
    },
    {
      "inputs": [
        {
          "internalType": "uint256",
          "name": "_index",
          "type": "uint256"
        }
      ],
      "name": "readProduct",
      "outputs": [
        {
          "internalType": "address payable",
          "name": "",
          "type": "address"
        },
        {
          "internalType": "string",
          "name": "",
          "type": "string"
        },
        {
          "internalType": "string",
          "name": "",
          "type": "string"
        },
        {
          "internalType": "string",
          "name": "",
          "type": "string"
        },
        {
          "internalType": "string",
          "name": "",
          "type": "string"
        },
        {
          "internalType": "uint256",
          "name": "",
          "type": "uint256"
        },
        {
          "internalType": "uint256",
          "name": "",
          "type": "uint256"
        }
      ],
      "stateMutability": "view",
      "type": "function"
    },
    {
      "inputs": [
        {
          "internalType": "uint256",
          "name": "_maxProductsPerUser",
          "type": "uint256"
        }
      ],
      "name": "setMaxProductsPerUser",
      "outputs": [],
      "stateMutability": "nonpayable",
      "type": "function"
    },
    {
      "inputs": [
        {
          "internalType": "string",
          "name": "_computer_title",
          "type": "string"
        },
        {
          "internalType": "string",
          "name": "_image_url",
          "type": "string"
        },
        {
          "internalType": "string",
          "name": "_computer_specs",
          "type": "string"
        },
        {
          "internalType": "string",
          "name": "_store_location",
          "type": "string"
        },
        {
          "internalType": "uint256",
          "name": "_price",
          "type": "uint256"
        }
      ],
      "name": "writeProduct",
      "outputs": [],
      "stateMutability": "nonpayable",
      "type": "function"
    }
  ],
  "bytecode": "0x60806040526000805573f194afdf50b03e69bd7d057c1aa9e10c9954e4c9600160006101000a81548173ffffffffffffffffffffffffffffffffffffffff021916908373ffffffffffffffffffffffffffffffffffffffff1602179055506000600160146101000a81548160ff021916908315150217905550600a60045534801561008957600080fd5b50612793806100996000396000f3fe6080604052600436106100705760003560e01c80638da8f27b1161004e5780638da8f27b146100f9578063a8701b0b14610122578063ed90c7b71461014b578063fffa7e2e1461017457610070565b80631155dfe51461007557806359a0c314146100a05780638642269e146100dd575b600080fd5b34801561008157600080fd5b5061008a6101b7565b6040516100979190611432565b60405180910390f35b3480156100ac57600080fd5b506100c760048036038101906100c291906114bf565b6101c0565b6040516100d4919061171f565b60405180910390f35b6100f760048036038101906100f2919061176d565b610647565b005b34801561010557600080fd5b50610120600480360381019061011b91906118cf565b610828565b005b34801561012e57600080fd5b506101496004803603810190610144919061176d565b610c35565b005b34801561015757600080fd5b50610172600480360381019061016d919061176d565b610c82565b005b34801561018057600080fd5b5061019b6004803603810190610196919061176d565b611058565b6040516101ae9796959493929190611a13565b60405180910390f35b60008054905090565b60606000805b60005481101561025b578373ffffffffffffffffffffffffffffffffffffffff166002600083815260200190815260200160002060000160009054906101000a900473ffffffffffffffffffffffffffffffffffffffff1673ffffffffffffffffffffffffffffffffffffffff160361024857818061024490611acd565b9250505b808061025390611acd565b9150506101c6565b5060008167ffffffffffffffff811115610278576102776117a4565b5b6040519080825280602002602001820160405280156102b157816020015b61029e611369565b8152602001906001900390816102965790505b5090506000805b60005481101561063b578573ffffffffffffffffffffffffffffffffffffffff166002600083815260200190815260200160002060000160009054906101000a900473ffffffffffffffffffffffffffffffffffffffff1673ffffffffffffffffffffffffffffffffffffffff160361062857600260008281526020019081526020016000206040518060e00160405290816000820160009054906101000a900473ffffffffffffffffffffffffffffffffffffffff1673ffffffffffffffffffffffffffffffffffffffff1673ffffffffffffffffffffffffffffffffffffffff1681526020016001820180546103af90611b44565b80601f01602080910402602001604051908101604052809291908181526020018280546103db90611b44565b80156104285780601f106103fd57610100808354040283529160200191610428565b820191906000526020600020905b81548152906001019060200180831161040b57829003601f168201915b5050505050815260200160028201805461044190611b44565b80601f016020809104026020016040519081016040528092919081815260200182805461046d90611b44565b80156104ba5780601f1061048f576101008083540402835291602001916104ba565b820191906000526020600020905b81548152906001019060200180831161049d57829003601f168201915b505050505081526020016003820180546104d390611b44565b80601f01602080910402602001604051908101604052809291908181526020018280546104ff90611b44565b801561054c5780601f106105215761010080835404028352916020019161054c565b820191906000526020600020905b81548152906001019060200180831161052f57829003601f168201915b5050505050815260200160048201805461056590611b44565b80601f016020809104026020016040519081016040528092919081815260200182805461059190611b44565b80156105de5780601f106105b3576101008083540402835291602001916105de565b820191906000526020600020905b8154815290600101906020018083116105c157829003601f168201915b505050505081526020016005820154815260200160068201548152505083838151811061060e5761060d611b75565b5b6020026020010181905250818061062490611acd565b9250505b808061063390611acd565b9150506102b8565b50819350505050919050565b600160149054906101000a900460ff1615610697576040517f08c379a000000000000000000000000000000000000000000000000000000000815260040161068e90611bf0565b60405180910390fd5b60018060146101000a81548160ff021916908315150217905550600160009054906101000a900473ffffffffffffffffffffffffffffffffffffffff1673ffffffffffffffffffffffffffffffffffffffff166323b872dd336002600085815260200190815260200160002060000160009054906101000a900473ffffffffffffffffffffffffffffffffffffffff1660026000868152602001908152602001600020600501546040518463ffffffff1660e01b815260040161075c93929190611c7e565b6020604051808303816000875af115801561077b573d6000803e3d6000fd5b505050506040513d601f19601f8201168201806040525081019061079f9190611ced565b6107de576040517f08c379a00000000000000000000000000000000000000000000000000000000081526004016107d590611d66565b60405180910390fd5b60026000828152602001908152602001600020600601600081548092919061080590611acd565b91905055506000600160146101000a81548160ff02191690831515021790555050565b600085511161086c576040517f08c379a000000000000000000000000000000000000000000000000000000000815260040161086390611dd2565b60405180910390fd5b60008451116108b0576040517f08c379a00000000000000000000000000000000000000000000000000000000081526004016108a790611e3e565b60405180910390fd5b60008351116108f4576040517f08c379a00000000000000000000000000000000000000000000000000000000081526004016108eb90611eaa565b60405180910390fd5b6000825111610938576040517f08c379a000000000000000000000000000000000000000000000000000000000815260040161092f90611f16565b60405180910390fd5b6000811161097b576040517f08c379a000000000000000000000000000000000000000000000000000000000815260040161097290611f82565b60405180910390fd5b600081118015610994575068056bc75e2d631000008111155b6109d3576040517f08c379a00000000000000000000000000000000000000000000000000000000081526004016109ca90611fee565b60405180910390fd5b600454600360003373ffffffffffffffffffffffffffffffffffffffff1673ffffffffffffffffffffffffffffffffffffffff1681526020019081526020016000205410610a56576040517f08c379a0000000000000000000000000000000000000000000000000000000008152600401610a4d90612080565b60405180910390fd5b60006040518060e001604052803373ffffffffffffffffffffffffffffffffffffffff16815260200187815260200186815260200185815260200184815260200183815260200182815250600260008054815260200190815260200160002060008201518160000160006101000a81548173ffffffffffffffffffffffffffffffffffffffff021916908373ffffffffffffffffffffffffffffffffffffffff1602179055506020820151816001019081610b119190612242565b506040820151816002019081610b279190612242565b506060820151816003019081610b3d9190612242565b506080820151816004019081610b539190612242565b5060a0820151816005015560c08201518160060155905050600080815480929190610b7d90611acd565b9190505550600360003373ffffffffffffffffffffffffffffffffffffffff1673ffffffffffffffffffffffffffffffffffffffff1681526020019081526020016000206000815480929190610bd290611acd565b91905055503373ffffffffffffffffffffffffffffffffffffffff167fa31d1ff55d59cd293ba471cd37da9b4d9ccb98f2d1b5d4c35614b2af8c1ac4358787878787604051610c25959493929190612314565b60405180910390a2505050505050565b60008111610c78576040517f08c379a0000000000000000000000000000000000000000000000000000000008152600401610c6f906123f5565b60405180910390fd5b8060048190555050565b6000548110610cc6576040517f08c379a0000000000000000000000000000000000000000000000000000000008152600401610cbd90612461565b60405180910390fd5b3373ffffffffffffffffffffffffffffffffffffffff166002600083815260200190815260200160002060000160009054906101000a900473ffffffffffffffffffffffffffffffffffffffff1673ffffffffffffffffffffffffffffffffffffffff1614610d6a576040517f08c379a0000000000000000000000000000000000000000000000000000000008152600401610d61906124f3565b60405180910390fd5b60008190505b6001600054610d7f9190612513565b811015610e9d5760026000600183610d979190612547565b8152602001908152602001600020600260008381526020019081526020016000206000820160009054906101000a900473ffffffffffffffffffffffffffffffffffffffff168160000160006101000a81548173ffffffffffffffffffffffffffffffffffffffff021916908373ffffffffffffffffffffffffffffffffffffffff16021790555060018201816001019081610e339190612591565b5060028201816002019081610e489190612591565b5060038201816003019081610e5d9190612591565b5060048201816004019081610e729190612591565b5060058201548160050155600682015481600601559050508080610e9590611acd565b915050610d70565b50600260006001600054610eb19190612513565b8152602001908152602001600020600080820160006101000a81549073ffffffffffffffffffffffffffffffffffffffff0219169055600182016000610ef791906113bc565b600282016000610f0791906113bc565b600382016000610f1791906113bc565b600482016000610f2791906113bc565b600582016000905560068201600090555050600080815480929190610f4b90612679565b9190505550600360003373ffffffffffffffffffffffffffffffffffffffff1673ffffffffffffffffffffffffffffffffffffffff1681526020019081526020016000206000815480929190610fa090612679565b91905055506002600082815260200190815260200160002060000160009054906101000a900473ffffffffffffffffffffffffffffffffffffffff1673ffffffffffffffffffffffffffffffffffffffff167f01a152e7324a114ee92d8e19f78cdb77f27a935e44a2e73e0bbb899b533d14dc600260008481526020019081526020016000206001016002600085815260200190815260200160002060020160405161104d929190612726565b60405180910390a250565b60006060806060806000806002600089815260200190815260200160002060000160009054906101000a900473ffffffffffffffffffffffffffffffffffffffff16600260008a8152602001908152602001600020600101600260008b8152602001908152602001600020600201600260008c8152602001908152602001600020600301600260008d8152602001908152602001600020600401600260008e815260200190815260200160002060050154600260008f81526020019081526020016000206006015485805461112c90611b44565b80601f016020809104026020016040519081016040528092919081815260200182805461115890611b44565b80156111a55780601f1061117a576101008083540402835291602001916111a5565b820191906000526020600020905b81548152906001019060200180831161118857829003601f168201915b505050505095508480546111b890611b44565b80601f01602080910402602001604051908101604052809291908181526020018280546111e490611b44565b80156112315780601f1061120657610100808354040283529160200191611231565b820191906000526020600020905b81548152906001019060200180831161121457829003601f168201915b5050505050945083805461124490611b44565b80601f016020809104026020016040519081016040528092919081815260200182805461127090611b44565b80156112bd5780601f10611292576101008083540402835291602001916112bd565b820191906000526020600020905b8154815290600101906020018083116112a057829003601f168201915b505050505093508280546112d090611b44565b80601f01602080910402602001604051908101604052809291908181526020018280546112fc90611b44565b80156113495780601f1061131e57610100808354040283529160200191611349565b820191906000526020600020905b81548152906001019060200180831161132c57829003601f168201915b505050505092509650965096509650965096509650919395979092949650565b6040518060e00160405280600073ffffffffffffffffffffffffffffffffffffffff1681526020016060815260200160608152602001606081526020016060815260200160008152602001600081525090565b5080546113c890611b44565b6000825580601f106113da57506113f9565b601f0160209004906000526020600020908101906113f891906113fc565b5b50565b5b808211156114155760008160009055506001016113fd565b5090565b6000819050919050565b61142c81611419565b82525050565b60006020820190506114476000830184611423565b92915050565b6000604051905090565b600080fd5b600080fd5b600073ffffffffffffffffffffffffffffffffffffffff82169050919050565b600061148c82611461565b9050919050565b61149c81611481565b81146114a757600080fd5b50565b6000813590506114b981611493565b92915050565b6000602082840312156114d5576114d4611457565b5b60006114e3848285016114aa565b91505092915050565b600081519050919050565b600082825260208201905092915050565b6000819050602082019050919050565b600061152382611461565b9050919050565b61153381611518565b82525050565b600081519050919050565b600082825260208201905092915050565b60005b83811015611573578082015181840152602081019050611558565b60008484015250505050565b6000601f19601f8301169050919050565b600061159b82611539565b6115a58185611544565b93506115b5818560208601611555565b6115be8161157f565b840191505092915050565b6115d281611419565b82525050565b600060e0830160008301516115f0600086018261152a565b50602083015184820360208601526116088282611590565b915050604083015184820360408601526116228282611590565b9150506060830151848203606086015261163c8282611590565b915050608083015184820360808601526116568282611590565b91505060a083015161166b60a08601826115c9565b5060c083015161167e60c08601826115c9565b508091505092915050565b600061169583836115d8565b905092915050565b6000602082019050919050565b60006116b5826114ec565b6116bf81856114f7565b9350836020820285016116d185611508565b8060005b8581101561170d57848403895281516116ee8582611689565b94506116f98361169d565b925060208a019950506001810190506116d5565b50829750879550505050505092915050565b6000602082019050818103600083015261173981846116aa565b905092915050565b61174a81611419565b811461175557600080fd5b50565b60008135905061176781611741565b92915050565b60006020828403121561178357611782611457565b5b600061179184828501611758565b91505092915050565b600080fd5b600080fd5b7f4e487b7100000000000000000000000000000000000000000000000000000000600052604160045260246000fd5b6117dc8261157f565b810181811067ffffffffffffffff821117156117fb576117fa6117a4565b5b80604052505050565b600061180e61144d565b905061181a82826117d3565b919050565b600067ffffffffffffffff82111561183a576118396117a4565b5b6118438261157f565b9050602081019050919050565b82818337600083830152505050565b600061187261186d8461181f565b611804565b90508281526020810184848401111561188e5761188d61179f565b5b611899848285611850565b509392505050565b600082601f8301126118b6576118b561179a565b5b81356118c684826020860161185f565b91505092915050565b600080600080600060a086880312156118eb576118ea611457565b5b600086013567ffffffffffffffff8111156119095761190861145c565b5b611915888289016118a1565b955050602086013567ffffffffffffffff8111156119365761193561145c565b5b611942888289016118a1565b945050604086013567ffffffffffffffff8111156119635761196261145c565b5b61196f888289016118a1565b935050606086013567ffffffffffffffff8111156119905761198f61145c565b5b61199c888289016118a1565b92505060806119ad88828901611758565b9150509295509295909350565b6119c381611518565b82525050565b600082825260208201905092915050565b60006119e582611539565b6119ef81856119c9565b93506119ff818560208601611555565b611a088161157f565b840191505092915050565b600060e082019050611a28600083018a6119ba565b8181036020830152611a3a81896119da565b90508181036040830152611a4e81886119da565b90508181036060830152611a6281876119da565b90508181036080830152611a7681866119da565b9050611a8560a0830185611423565b611a9260c0830184611423565b98975050505050505050565b7f4e487b7100000000000000000000000000000000000000000000000000000000600052601160045260246000fd5b6000611ad882611419565b91507fffffffffffffffffffffffffffffffffffffffffffffffffffffffffffffffff8203611b0a57611b09611a9e565b5b600182019050919050565b7f4e487b7100000000000000000000000000000000000000000000000000000000600052602260045260246000fd5b60006002820490506001821680611b5c57607f821691505b602082108103611b6f57611b6e611b15565b5b50919050565b7f4e487b7100000000000000000000000000000000000000000000000000000000600052603260045260246000fd5b7f5265656e7472616e742063616c6c2e0000000000000000000000000000000000600082015250565b6000611bda600f836119c9565b9150611be582611ba4565b602082019050919050565b60006020820190508181036000830152611c0981611bcd565b9050919050565b611c1981611481565b82525050565b6000819050919050565b6000611c44611c3f611c3a84611461565b611c1f565b611461565b9050919050565b6000611c5682611c29565b9050919050565b6000611c6882611c4b565b9050919050565b611c7881611c5d565b82525050565b6000606082019050611c936000830186611c10565b611ca06020830185611c6f565b611cad6040830184611423565b949350505050565b60008115159050919050565b611cca81611cb5565b8114611cd557600080fd5b50565b600081519050611ce781611cc1565b92915050565b600060208284031215611d0357611d02611457565b5b6000611d1184828501611cd8565b91505092915050565b7f5472616e73666572206661696c65642e00000000000000000000000000000000600082015250565b6000611d506010836119c9565b9150611d5b82611d1a565b602082019050919050565b60006020820190508181036000830152611d7f81611d43565b9050919050565b7f436f6d7075746572207469746c652063616e6e6f7420626520656d7074790000600082015250565b6000611dbc601e836119c9565b9150611dc782611d86565b602082019050919050565b60006020820190508181036000830152611deb81611daf565b9050919050565b7f496d6167652055524c2063616e6e6f7420626520656d70747900000000000000600082015250565b6000611e286019836119c9565b9150611e3382611df2565b602082019050919050565b60006020820190508181036000830152611e5781611e1b565b9050919050565b7f436f6d70757465722073706563732063616e6e6f7420626520656d7074790000600082015250565b6000611e94601e836119c9565b9150611e9f82611e5e565b602082019050919050565b60006020820190508181036000830152611ec381611e87565b9050919050565b7f53746f7265206c6f636174696f6e2063616e6e6f7420626520656d7074790000600082015250565b6000611f00601e836119c9565b9150611f0b82611eca565b602082019050919050565b60006020820190508181036000830152611f2f81611ef3565b9050919050565b7f5072696365206d7573742062652067726561746572207468616e207a65726f00600082015250565b6000611f6c601f836119c9565b9150611f7782611f36565b602082019050919050565b60006020820190508181036000830152611f9b81611f5f565b9050919050565b7f496e76616c69642070726f647563742070726963650000000000000000000000600082015250565b6000611fd86015836119c9565b9150611fe382611fa2565b602082019050919050565b6000602082019050818103600083015261200781611fcb565b9050919050565b7f4d6178696d756d2070726f64756374732070657220757365722072656163686560008201527f6400000000000000000000000000000000000000000000000000000000000000602082015250565b600061206a6021836119c9565b91506120758261200e565b604082019050919050565b600060208201905081810360008301526120998161205d565b9050919050565b60008190508160005260206000209050919050565b60006020601f8301049050919050565b600082821b905092915050565b6000600883026121027fffffffffffffffffffffffffffffffffffffffffffffffffffffffffffffffff826120c5565b61210c86836120c5565b95508019841693508086168417925050509392505050565b600061213f61213a61213584611419565b611c1f565b611419565b9050919050565b6000819050919050565b61215983612124565b61216d61216582612146565b8484546120d2565b825550505050565b600090565b612182612175565b61218d818484612150565b505050565b5b818110156121b1576121a660008261217a565b600181019050612193565b5050565b601f8211156121f6576121c7816120a0565b6121d0846120b5565b810160208510156121df578190505b6121f36121eb856120b5565b830182612192565b50505b505050565b600082821c905092915050565b6000612219600019846008026121fb565b1980831691505092915050565b60006122328383612208565b9150826002028217905092915050565b61224b82611539565b67ffffffffffffffff811115612264576122636117a4565b5b61226e8254611b44565b6122798282856121b5565b600060209050601f8311600181146122ac576000841561229a578287015190505b6122a48582612226565b86555061230c565b601f1984166122ba866120a0565b60005b828110156122e2578489015182556001820191506020850194506020810190506122bd565b868310156122ff57848901516122fb601f891682612208565b8355505b6001600288020188555050505b505050505050565b600060a082019050818103600083015261232e81886119da565b9050818103602083015261234281876119da565b9050818103604083015261235681866119da565b9050818103606083015261236a81856119da565b90506123796080830184611423565b9695505050505050565b7f4d6178696d756d2070726f6475637473207065722075736572206d757374206260008201527f652067726561746572207468616e203000000000000000000000000000000000602082015250565b60006123df6030836119c9565b91506123ea82612383565b604082019050919050565b6000602082019050818103600083015261240e816123d2565b9050919050565b7f50726f6475637420696e646578206f7574206f662072616e6765000000000000600082015250565b600061244b601a836119c9565b915061245682612415565b602082019050919050565b6000602082019050818103600083015261247a8161243e565b9050919050565b7f4f6e6c7920746865206f776e65722063616e2064656c6574652074686569722060008201527f70726f6475637473000000000000000000000000000000000000000000000000602082015250565b60006124dd6028836119c9565b91506124e882612481565b604082019050919050565b6000602082019050818103600083015261250c816124d0565b9050919050565b600061251e82611419565b915061252983611419565b925082820390508181111561254157612540611a9e565b5b92915050565b600061255282611419565b915061255d83611419565b925082820190508082111561257557612574611a9e565b5b92915050565b60008154905061258a81611b44565b9050919050565b81810361259f575050612677565b6125a88261257b565b67ffffffffffffffff8111156125c1576125c06117a4565b5b6125cb8254611b44565b6125d68282856121b5565b6000601f83116001811461260557600084156125f3578287015490505b6125fd8582612226565b865550612670565b601f198416612613876120a0565b965061261e866120a0565b60005b8281101561264657848901548255600182019150600185019450602081019050612621565b86831015612663578489015461265f601f891682612208565b8355505b6001600288020188555050505b5050505050505b565b600061268482611419565b91506000820361269757612696611a9e565b5b600182039050919050565b600081546126af81611b44565b6126b981866119c9565b945060018216600081146126d457600181146126ea5761271d565b60ff19831686528115156020028601935061271d565b6126f3856120a0565b60005b83811015612715578154818901526001820191506020810190506126f6565b808801955050505b50505092915050565b6000604082019050818103600083015261274081856126a2565b9050818103602083015261275481846126a2565b9050939250505056fea26469706673582212202a3ac4fc1690cb4b5908174c6f6539c70b3d6c9d663be8d4312b9b0cbbba0c8964736f6c63430008110033",
  "linkReferences": {},
  "deployedLinkReferences": {}
}