{
  "_format": "hh-sol-artifact-1",
  "contractName": "ComputerMarketplace",
  "sourceName": "contracts/computerMarketplace.sol",
  "abi": [
    {
      "inputs": [],
      "stateMutability": "nonpayable",
      "type": "constructor"
    },
    {
      "anonymous": false,
      "inputs": [
        {
          "indexed": true,
          "internalType": "address",
          "name": "owner",
          "type": "address"
        },
        {
          "indexed": false,
          "internalType": "string",
          "name": "computer_title",
          "type": "string"
        },
        {
          "indexed": false,
          "internalType": "string",
          "name": "image_url",
          "type": "string"
        },
        {
          "indexed": false,
          "internalType": "string",
          "name": "computer_specs",
          "type": "string"
        },
        {
          "indexed": false,
          "internalType": "string",
          "name": "store_location",
          "type": "string"
        },
        {
          "indexed": false,
          "internalType": "uint256",
          "name": "price",
          "type": "uint256"
        }
      ],
      "name": "ProductCreated",
      "type": "event"
    },
    {
      "anonymous": false,
      "inputs": [
        {
          "indexed": true,
          "internalType": "uint256",
          "name": "productId",
          "type": "uint256"
        }
      ],
      "name": "ProductDeleted",
      "type": "event"
    },
    {
      "inputs": [],
      "name": "admin",
      "outputs": [
        {
          "internalType": "address",
          "name": "",
          "type": "address"
        }
      ],
      "stateMutability": "view",
      "type": "function"
    },
    {
      "inputs": [
        {
          "internalType": "uint256",
          "name": "_index",
          "type": "uint256"
        },
        {
          "internalType": "uint256",
          "name": "_amount",
          "type": "uint256"
        }
      ],
      "name": "buyProduct",
      "outputs": [],
      "stateMutability": "payable",
      "type": "function"
    },
    {
      "inputs": [
        {
          "internalType": "uint256",
          "name": "_index",
          "type": "uint256"
        }
      ],
      "name": "deleteProduct",
      "outputs": [],
      "stateMutability": "nonpayable",
      "type": "function"
    },
    {
      "inputs": [
        {
          "internalType": "address",
          "name": "_user",
          "type": "address"
        }
      ],
      "name": "getProductsByUser",
      "outputs": [
        {
          "components": [
            {
              "internalType": "address payable",
              "name": "owner",
              "type": "address"
            },
            {
              "internalType": "string",
              "name": "computer_title",
              "type": "string"
            },
            {
              "internalType": "string",
              "name": "image_url",
              "type": "string"
            },
            {
              "internalType": "string",
              "name": "computer_specs",
              "type": "string"
            },
            {
              "internalType": "string",
              "name": "store_location",
              "type": "string"
            },
            {
              "internalType": "uint256",
              "name": "price",
              "type": "uint256"
            },
            {
              "internalType": "uint256",
              "name": "sold",
              "type": "uint256"
            }
          ],
          "internalType": "struct ComputerMarketplace.Product[]",
          "name": "",
          "type": "tuple[]"
        }
      ],
      "stateMutability": "view",
      "type": "function"
    },
    {
      "inputs": [],
      "name": "getProductsLength",
      "outputs": [
        {
          "internalType": "uint256",
          "name": "",
          "type": "uint256"
        }
      ],
      "stateMutability": "view",
      "type": "function"
    },
    {
      "inputs": [
        {
          "internalType": "uint256",
          "name": "_index",
          "type": "uint256"
        }
      ],
      "name": "readProduct",
      "outputs": [
        {
          "internalType": "address payable",
          "name": "",
          "type": "address"
        },
        {
          "internalType": "string",
          "name": "",
          "type": "string"
        },
        {
          "internalType": "string",
          "name": "",
          "type": "string"
        },
        {
          "internalType": "string",
          "name": "",
          "type": "string"
        },
        {
          "internalType": "string",
          "name": "",
          "type": "string"
        },
        {
          "internalType": "uint256",
          "name": "",
          "type": "uint256"
        },
        {
          "internalType": "uint256",
          "name": "",
          "type": "uint256"
        }
      ],
      "stateMutability": "view",
      "type": "function"
    },
    {
      "inputs": [
        {
          "internalType": "uint256",
          "name": "_maxProductsPerUser",
          "type": "uint256"
        }
      ],
      "name": "setMaxProductsPerUser",
      "outputs": [],
      "stateMutability": "nonpayable",
      "type": "function"
    },
    {
      "inputs": [
        {
          "internalType": "string",
          "name": "_computer_title",
          "type": "string"
        },
        {
          "internalType": "string",
          "name": "_image_url",
          "type": "string"
        },
        {
          "internalType": "string",
          "name": "_computer_specs",
          "type": "string"
        },
        {
          "internalType": "string",
          "name": "_store_location",
          "type": "string"
        },
        {
          "internalType": "uint256",
          "name": "_price",
          "type": "uint256"
        }
      ],
      "name": "writeProduct",
      "outputs": [],
      "stateMutability": "nonpayable",
      "type": "function"
    }
  ],
  "bytecode": "0x60806040526000805573f194afdf50b03e69bd7d057c1aa9e10c9954e4c9600160006101000a81548173ffffffffffffffffffffffffffffffffffffffff021916908373ffffffffffffffffffffffffffffffffffffffff1602179055506000600160146101000a81548160ff021916908315150217905550600a60045534801561008957600080fd5b5033600560006101000a81548173ffffffffffffffffffffffffffffffffffffffff021916908373ffffffffffffffffffffffffffffffffffffffff1602179055506128a3806100da6000396000f3fe60806040526004361061007b5760003560e01c8063a8701b0b1161004e578063a8701b0b1461012d578063ed90c7b714610156578063f851a4401461017f578063fffa7e2e146101aa5761007b565b80631155dfe51461008057806353b62866146100ab57806359a0c314146100c75780638da8f27b14610104575b600080fd5b34801561008c57600080fd5b506100956101ed565b6040516100a291906114ce565b60405180910390f35b6100c560048036038101906100c09190611529565b6101f6565b005b3480156100d357600080fd5b506100ee60048036038101906100e991906115c7565b61045f565b6040516100fb9190611827565b60405180910390f35b34801561011057600080fd5b5061012b6004803603810190610126919061197e565b61090a565b005b34801561013957600080fd5b50610154600480360381019061014f9190611a69565b610cd4565b005b34801561016257600080fd5b5061017d60048036038101906101789190611a69565b610db1565b005b34801561018b57600080fd5b506101946110ce565b6040516101a19190611aa5565b60405180910390f35b3480156101b657600080fd5b506101d160048036038101906101cc9190611a69565b6110f4565b6040516101e49796959493929190611b19565b60405180910390f35b60008054905090565b600160149054906101000a900460ff1615610246576040517f08c379a000000000000000000000000000000000000000000000000000000000815260040161023d90611bf0565b60405180910390fd5b60018060146101000a81548160ff02191690831515021790555060005482106102a4576040517f08c379a000000000000000000000000000000000000000000000000000000000815260040161029b90611c5c565b60405180910390fd5b600081116102e7576040517f08c379a00000000000000000000000000000000000000000000000000000000081526004016102de90611cee565b60405180910390fd5b6000600260008481526020019081526020016000209050600160009054906101000a900473ffffffffffffffffffffffffffffffffffffffff1673ffffffffffffffffffffffffffffffffffffffff166323b872dd338360000160009054906101000a900473ffffffffffffffffffffffffffffffffffffffff168585600501546103729190611d3d565b6040518463ffffffff1660e01b815260040161039093929190611dde565b6020604051808303816000875af11580156103af573d6000803e3d6000fd5b505050506040513d601f19601f820116820180604052508101906103d39190611e4d565b610412576040517f08c379a000000000000000000000000000000000000000000000000000000000815260040161040990611ec6565b60405180910390fd5b816002600085815260200190815260200160002060060160008282546104389190611ee6565b92505081905550506000600160146101000a81548160ff0219169083151502179055505050565b6060600073ffffffffffffffffffffffffffffffffffffffff168273ffffffffffffffffffffffffffffffffffffffff160361049a57600080fd5b6000600360008473ffffffffffffffffffffffffffffffffffffffff1673ffffffffffffffffffffffffffffffffffffffff1681526020019081526020016000205467ffffffffffffffff8111156104f5576104f4611853565b5b60405190808252806020026020018201604052801561052e57816020015b61051b611405565b8152602001906001900390816105135790505b5090506000805b6000548110156108ff578473ffffffffffffffffffffffffffffffffffffffff166002600083815260200190815260200160002060000160009054906101000a900473ffffffffffffffffffffffffffffffffffffffff1673ffffffffffffffffffffffffffffffffffffffff16036108ec57600260008281526020019081526020016000206040518060e00160405290816000820160009054906101000a900473ffffffffffffffffffffffffffffffffffffffff1673ffffffffffffffffffffffffffffffffffffffff1673ffffffffffffffffffffffffffffffffffffffff16815260200160018201805461062c90611f49565b80601f016020809104026020016040519081016040528092919081815260200182805461065890611f49565b80156106a55780601f1061067a576101008083540402835291602001916106a5565b820191906000526020600020905b81548152906001019060200180831161068857829003601f168201915b505050505081526020016002820180546106be90611f49565b80601f01602080910402602001604051908101604052809291908181526020018280546106ea90611f49565b80156107375780601f1061070c57610100808354040283529160200191610737565b820191906000526020600020905b81548152906001019060200180831161071a57829003601f168201915b5050505050815260200160038201805461075090611f49565b80601f016020809104026020016040519081016040528092919081815260200182805461077c90611f49565b80156107c95780601f1061079e576101008083540402835291602001916107c9565b820191906000526020600020905b8154815290600101906020018083116107ac57829003601f168201915b505050505081526020016004820180546107e290611f49565b80601f016020809104026020016040519081016040528092919081815260200182805461080e90611f49565b801561085b5780601f106108305761010080835404028352916020019161085b565b820191906000526020600020905b81548152906001019060200180831161083e57829003601f168201915b505050505081526020016005820154815260200160068201548152505083838151811061088b5761088a611f7a565b5b602002602001018190525081806108a190611fa9565b925050600360008673ffffffffffffffffffffffffffffffffffffffff1673ffffffffffffffffffffffffffffffffffffffff168152602001908152602001600020548203156108ff575b80806108f790611fa9565b915050610535565b508192505050919050565b600085511161094e576040517f08c379a00000000000000000000000000000000000000000000000000000000081526004016109459061203d565b60405180910390fd5b6000845111610992576040517f08c379a0000000000000000000000000000000000000000000000000000000008152600401610989906120a9565b60405180910390fd5b60008351116109d6576040517f08c379a00000000000000000000000000000000000000000000000000000000081526004016109cd90612115565b60405180910390fd5b6000825111610a1a576040517f08c379a0000000000000000000000000000000000000000000000000000000008152600401610a1190612181565b60405180910390fd5b600081118015610a33575068056bc75e2d631000008111155b610a72576040517f08c379a0000000000000000000000000000000000000000000000000000000008152600401610a69906121ed565b60405180910390fd5b600454600360003373ffffffffffffffffffffffffffffffffffffffff1673ffffffffffffffffffffffffffffffffffffffff1681526020019081526020016000205410610af5576040517f08c379a0000000000000000000000000000000000000000000000000000000008152600401610aec9061227f565b60405180910390fd5b60006040518060e001604052803373ffffffffffffffffffffffffffffffffffffffff16815260200187815260200186815260200185815260200184815260200183815260200182815250600260008054815260200190815260200160002060008201518160000160006101000a81548173ffffffffffffffffffffffffffffffffffffffff021916908373ffffffffffffffffffffffffffffffffffffffff1602179055506020820151816001019081610bb09190612441565b506040820151816002019081610bc69190612441565b506060820151816003019081610bdc9190612441565b506080820151816004019081610bf29190612441565b5060a0820151816005015560c08201518160060155905050600080815480929190610c1c90611fa9565b9190505550600360003373ffffffffffffffffffffffffffffffffffffffff1673ffffffffffffffffffffffffffffffffffffffff1681526020019081526020016000206000815480929190610c7190611fa9565b91905055503373ffffffffffffffffffffffffffffffffffffffff167fa31d1ff55d59cd293ba471cd37da9b4d9ccb98f2d1b5d4c35614b2af8c1ac4358787878787604051610cc4959493929190612513565b60405180910390a2505050505050565b3373ffffffffffffffffffffffffffffffffffffffff16600560009054906101000a900473ffffffffffffffffffffffffffffffffffffffff1673ffffffffffffffffffffffffffffffffffffffff1614610d64576040517f08c379a0000000000000000000000000000000000000000000000000000000008152600401610d5b906125ce565b60405180910390fd5b60008111610da7576040517f08c379a0000000000000000000000000000000000000000000000000000000008152600401610d9e90612660565b60405180910390fd5b8060048190555050565b6000548110610df5576040517f08c379a0000000000000000000000000000000000000000000000000000000008152600401610dec90611c5c565b60405180910390fd5b60006002600083815260200190815260200160002060000160009054906101000a900473ffffffffffffffffffffffffffffffffffffffff1690503373ffffffffffffffffffffffffffffffffffffffff168173ffffffffffffffffffffffffffffffffffffffff1614610e9e576040517f08c379a0000000000000000000000000000000000000000000000000000000008152600401610e95906126f2565b60405180910390fd5b600360008273ffffffffffffffffffffffffffffffffffffffff1673ffffffffffffffffffffffffffffffffffffffff1681526020019081526020016000206000815480929190610eee90612712565b9190505550600260006001600054610f06919061273b565b8152602001908152602001600020600260008481526020019081526020016000206000820160009054906101000a900473ffffffffffffffffffffffffffffffffffffffff168160000160006101000a81548173ffffffffffffffffffffffffffffffffffffffff021916908373ffffffffffffffffffffffffffffffffffffffff16021790555060018201816001019081610fa29190612785565b5060028201816002019081610fb79190612785565b5060038201816003019081610fcc9190612785565b5060048201816004019081610fe19190612785565b50600582015481600501556006820154816006015590505060026000838152602001908152602001600020600080820160006101000a81549073ffffffffffffffffffffffffffffffffffffffff02191690556001820160006110449190611458565b6002820160006110549190611458565b6003820160006110649190611458565b6004820160006110749190611458565b60058201600090556006820160009055505060008081548092919061109890612712565b9190505550817fc341cf326465fe622f86c468249e8c0cb03ed23ba376a6a34863a1374ac7d76960405160405180910390a25050565b600560009054906101000a900473ffffffffffffffffffffffffffffffffffffffff1681565b60006060806060806000806002600089815260200190815260200160002060000160009054906101000a900473ffffffffffffffffffffffffffffffffffffffff16600260008a8152602001908152602001600020600101600260008b8152602001908152602001600020600201600260008c8152602001908152602001600020600301600260008d8152602001908152602001600020600401600260008e815260200190815260200160002060050154600260008f8152602001908152602001600020600601548580546111c890611f49565b80601f01602080910402602001604051908101604052809291908181526020018280546111f490611f49565b80156112415780601f1061121657610100808354040283529160200191611241565b820191906000526020600020905b81548152906001019060200180831161122457829003601f168201915b5050505050955084805461125490611f49565b80601f016020809104026020016040519081016040528092919081815260200182805461128090611f49565b80156112cd5780601f106112a2576101008083540402835291602001916112cd565b820191906000526020600020905b8154815290600101906020018083116112b057829003601f168201915b505050505094508380546112e090611f49565b80601f016020809104026020016040519081016040528092919081815260200182805461130c90611f49565b80156113595780601f1061132e57610100808354040283529160200191611359565b820191906000526020600020905b81548152906001019060200180831161133c57829003601f168201915b5050505050935082805461136c90611f49565b80601f016020809104026020016040519081016040528092919081815260200182805461139890611f49565b80156113e55780601f106113ba576101008083540402835291602001916113e5565b820191906000526020600020905b8154815290600101906020018083116113c857829003601f168201915b505050505092509650965096509650965096509650919395979092949650565b6040518060e00160405280600073ffffffffffffffffffffffffffffffffffffffff1681526020016060815260200160608152602001606081526020016060815260200160008152602001600081525090565b50805461146490611f49565b6000825580601f106114765750611495565b601f0160209004906000526020600020908101906114949190611498565b5b50565b5b808211156114b1576000816000905550600101611499565b5090565b6000819050919050565b6114c8816114b5565b82525050565b60006020820190506114e360008301846114bf565b92915050565b6000604051905090565b600080fd5b600080fd5b611506816114b5565b811461151157600080fd5b50565b600081359050611523816114fd565b92915050565b600080604083850312156115405761153f6114f3565b5b600061154e85828601611514565b925050602061155f85828601611514565b9150509250929050565b600073ffffffffffffffffffffffffffffffffffffffff82169050919050565b600061159482611569565b9050919050565b6115a481611589565b81146115af57600080fd5b50565b6000813590506115c18161159b565b92915050565b6000602082840312156115dd576115dc6114f3565b5b60006115eb848285016115b2565b91505092915050565b600081519050919050565b600082825260208201905092915050565b6000819050602082019050919050565b600061162b82611569565b9050919050565b61163b81611620565b82525050565b600081519050919050565b600082825260208201905092915050565b60005b8381101561167b578082015181840152602081019050611660565b60008484015250505050565b6000601f19601f8301169050919050565b60006116a382611641565b6116ad818561164c565b93506116bd81856020860161165d565b6116c681611687565b840191505092915050565b6116da816114b5565b82525050565b600060e0830160008301516116f86000860182611632565b50602083015184820360208601526117108282611698565b9150506040830151848203604086015261172a8282611698565b915050606083015184820360608601526117448282611698565b9150506080830151848203608086015261175e8282611698565b91505060a083015161177360a08601826116d1565b5060c083015161178660c08601826116d1565b508091505092915050565b600061179d83836116e0565b905092915050565b6000602082019050919050565b60006117bd826115f4565b6117c781856115ff565b9350836020820285016117d985611610565b8060005b8581101561181557848403895281516117f68582611791565b9450611801836117a5565b925060208a019950506001810190506117dd565b50829750879550505050505092915050565b6000602082019050818103600083015261184181846117b2565b905092915050565b600080fd5b600080fd5b7f4e487b7100000000000000000000000000000000000000000000000000000000600052604160045260246000fd5b61188b82611687565b810181811067ffffffffffffffff821117156118aa576118a9611853565b5b80604052505050565b60006118bd6114e9565b90506118c98282611882565b919050565b600067ffffffffffffffff8211156118e9576118e8611853565b5b6118f282611687565b9050602081019050919050565b82818337600083830152505050565b600061192161191c846118ce565b6118b3565b90508281526020810184848401111561193d5761193c61184e565b5b6119488482856118ff565b509392505050565b600082601f83011261196557611964611849565b5b813561197584826020860161190e565b91505092915050565b600080600080600060a0868803121561199a576119996114f3565b5b600086013567ffffffffffffffff8111156119b8576119b76114f8565b5b6119c488828901611950565b955050602086013567ffffffffffffffff8111156119e5576119e46114f8565b5b6119f188828901611950565b945050604086013567ffffffffffffffff811115611a1257611a116114f8565b5b611a1e88828901611950565b935050606086013567ffffffffffffffff811115611a3f57611a3e6114f8565b5b611a4b88828901611950565b9250506080611a5c88828901611514565b9150509295509295909350565b600060208284031215611a7f57611a7e6114f3565b5b6000611a8d84828501611514565b91505092915050565b611a9f81611589565b82525050565b6000602082019050611aba6000830184611a96565b92915050565b611ac981611620565b82525050565b600082825260208201905092915050565b6000611aeb82611641565b611af58185611acf565b9350611b0581856020860161165d565b611b0e81611687565b840191505092915050565b600060e082019050611b2e600083018a611ac0565b8181036020830152611b408189611ae0565b90508181036040830152611b548188611ae0565b90508181036060830152611b688187611ae0565b90508181036080830152611b7c8186611ae0565b9050611b8b60a08301856114bf565b611b9860c08301846114bf565b98975050505050505050565b7f5265656e7472616e742063616c6c2e0000000000000000000000000000000000600082015250565b6000611bda600f83611acf565b9150611be582611ba4565b602082019050919050565b60006020820190508181036000830152611c0981611bcd565b9050919050565b7f496e76616c69642070726f6475637420696e6465780000000000000000000000600082015250565b6000611c46601583611acf565b9150611c5182611c10565b602082019050919050565b60006020820190508181036000830152611c7581611c39565b9050919050565b7f4f6e652070726f64756374206d757374206174206c6561737420626520626f7560008201527f6768740000000000000000000000000000000000000000000000000000000000602082015250565b6000611cd8602383611acf565b9150611ce382611c7c565b604082019050919050565b60006020820190508181036000830152611d0781611ccb565b9050919050565b7f4e487b7100000000000000000000000000000000000000000000000000000000600052601160045260246000fd5b6000611d48826114b5565b9150611d53836114b5565b9250828202611d61816114b5565b91508282048414831517611d7857611d77611d0e565b5b5092915050565b6000819050919050565b6000611da4611d9f611d9a84611569565b611d7f565b611569565b9050919050565b6000611db682611d89565b9050919050565b6000611dc882611dab565b9050919050565b611dd881611dbd565b82525050565b6000606082019050611df36000830186611a96565b611e006020830185611dcf565b611e0d60408301846114bf565b949350505050565b60008115159050919050565b611e2a81611e15565b8114611e3557600080fd5b50565b600081519050611e4781611e21565b92915050565b600060208284031215611e6357611e626114f3565b5b6000611e7184828501611e38565b91505092915050565b7f5472616e73666572206661696c65642e00000000000000000000000000000000600082015250565b6000611eb0601083611acf565b9150611ebb82611e7a565b602082019050919050565b60006020820190508181036000830152611edf81611ea3565b9050919050565b6000611ef1826114b5565b9150611efc836114b5565b9250828201905080821115611f1457611f13611d0e565b5b92915050565b7f4e487b7100000000000000000000000000000000000000000000000000000000600052602260045260246000fd5b60006002820490506001821680611f6157607f821691505b602082108103611f7457611f73611f1a565b5b50919050565b7f4e487b7100000000000000000000000000000000000000000000000000000000600052603260045260246000fd5b6000611fb4826114b5565b91507fffffffffffffffffffffffffffffffffffffffffffffffffffffffffffffffff8203611fe657611fe5611d0e565b5b600182019050919050565b7f436f6d7075746572207469746c652063616e6e6f7420626520656d7074790000600082015250565b6000612027601e83611acf565b915061203282611ff1565b602082019050919050565b600060208201905081810360008301526120568161201a565b9050919050565b7f496d6167652055524c2063616e6e6f7420626520656d70747900000000000000600082015250565b6000612093601983611acf565b915061209e8261205d565b602082019050919050565b600060208201905081810360008301526120c281612086565b9050919050565b7f436f6d70757465722073706563732063616e6e6f7420626520656d7074790000600082015250565b60006120ff601e83611acf565b915061210a826120c9565b602082019050919050565b6000602082019050818103600083015261212e816120f2565b9050919050565b7f53746f7265206c6f636174696f6e2063616e6e6f7420626520656d7074790000600082015250565b600061216b601e83611acf565b915061217682612135565b602082019050919050565b6000602082019050818103600083015261219a8161215e565b9050919050565b7f496e76616c69642070726f647563742070726963650000000000000000000000600082015250565b60006121d7601583611acf565b91506121e2826121a1565b602082019050919050565b60006020820190508181036000830152612206816121ca565b9050919050565b7f4d6178696d756d2070726f64756374732070657220757365722072656163686560008201527f6400000000000000000000000000000000000000000000000000000000000000602082015250565b6000612269602183611acf565b91506122748261220d565b604082019050919050565b600060208201905081810360008301526122988161225c565b9050919050565b60008190508160005260206000209050919050565b60006020601f8301049050919050565b600082821b905092915050565b6000600883026123017fffffffffffffffffffffffffffffffffffffffffffffffffffffffffffffffff826122c4565b61230b86836122c4565b95508019841693508086168417925050509392505050565b600061233e612339612334846114b5565b611d7f565b6114b5565b9050919050565b6000819050919050565b61235883612323565b61236c61236482612345565b8484546122d1565b825550505050565b600090565b612381612374565b61238c81848461234f565b505050565b5b818110156123b0576123a5600082612379565b600181019050612392565b5050565b601f8211156123f5576123c68161229f565b6123cf846122b4565b810160208510156123de578190505b6123f26123ea856122b4565b830182612391565b50505b505050565b600082821c905092915050565b6000612418600019846008026123fa565b1980831691505092915050565b60006124318383612407565b9150826002028217905092915050565b61244a82611641565b67ffffffffffffffff81111561246357612462611853565b5b61246d8254611f49565b6124788282856123b4565b600060209050601f8311600181146124ab5760008415612499578287015190505b6124a38582612425565b86555061250b565b601f1984166124b98661229f565b60005b828110156124e1578489015182556001820191506020850194506020810190506124bc565b868310156124fe57848901516124fa601f891682612407565b8355505b6001600288020188555050505b505050505050565b600060a082019050818103600083015261252d8188611ae0565b905081810360208301526125418187611ae0565b905081810360408301526125558186611ae0565b905081810360608301526125698185611ae0565b905061257860808301846114bf565b9695505050505050565b7f556e617574686f72697a65642063616c6c657200000000000000000000000000600082015250565b60006125b8601383611acf565b91506125c382612582565b602082019050919050565b600060208201905081810360008301526125e7816125ab565b9050919050565b7f4d6178696d756d2070726f6475637473207065722075736572206d757374206260008201527f652067726561746572207468616e203000000000000000000000000000000000602082015250565b600061264a603083611acf565b9150612655826125ee565b604082019050919050565b600060208201905081810360008301526126798161263d565b9050919050565b7f4f6e6c7920746865206f776e65722063616e2064656c6574652074686520707260008201527f6f64756374000000000000000000000000000000000000000000000000000000602082015250565b60006126dc602583611acf565b91506126e782612680565b604082019050919050565b6000602082019050818103600083015261270b816126cf565b9050919050565b600061271d826114b5565b9150600082036127305761272f611d0e565b5b600182039050919050565b6000612746826114b5565b9150612751836114b5565b925082820390508181111561276957612768611d0e565b5b92915050565b60008154905061277e81611f49565b9050919050565b81810361279357505061286b565b61279c8261276f565b67ffffffffffffffff8111156127b5576127b4611853565b5b6127bf8254611f49565b6127ca8282856123b4565b6000601f8311600181146127f957600084156127e7578287015490505b6127f18582612425565b865550612864565b601f1984166128078761229f565b96506128128661229f565b60005b8281101561283a57848901548255600182019150600185019450602081019050612815565b868310156128575784890154612853601f891682612407565b8355505b6001600288020188555050505b5050505050505b56fea26469706673582212209881d1d16f9f904ac639e776661ae980ceb5b3ab41e38c9ea51f5d8a13076cc664736f6c63430008110033",
  "linkReferences": {},
  "deployedLinkReferences": {}
}